:020000040000FA
:06080000DFEF1FF0120003
:02080600FEFFF3
:0608080046EF04F01200AF
:02080E00C250D6
:08081000020B01E0010E1200D1
:0608180045EF13F0120091
:02081E000900CF
:10082000814600004703000001000000FC46000074
:100830004503000002000000F946000040030000EC
:1008400003000000BD460000580200003C0000000C
:10085000BB4600004303000002000000B746000052
:100860003903000004000000AA4600002003000035
:100870000D00000098460000000300001200000078
:0C08800006080000FE010000020000005D
:04088C00DACFE4FFDC
:10089000E2CFDAFFE9CFE4FFEACFE4FFE652F2A2CB
:1008A00002D0A0D802D09EB6CCD8E552E5CFEAFF60
:1008B000E5CFE9FFE5CFDAFF1100E66A010EE66E4B
:1008C000050EE66E4FEC21F0E552E552E5521200BE
:1008D000070EB46E000E886E876E866E856E846E0F
:1008E000836E826E816E806E916E906E8F6E8E6E54
:1008F0008D6E8C6E8B6E8A6E896E2F0E926EFD0ED3
:10090000936E9C0E946E956A966A9768040E986E24
:100910000E0E9A6E9968C16AF19EB0989C8EA26A7A
:100920009F6AA06A9D6AA36AA56AC7DF9F86D08E68
:100930009E969D86F06AF288F09EF098F192F09A69
:10094000F16AF28CF28E1200D9CFE6FFE1CFD9FF27
:10095000E652BEDF0101F497F4990201B80EFE6F72
:10096000010EFF6FDF6A100EDF5C0AE2DF50EA6AF9
:10097000FE25E96EFF51EA227F0EEF6EDF2AF3D7E4
:100980000101D16B010ED26FC20ED36F0101F4854C
:100990000101D66BD76B0101B46BB66BB76B010E5F
:1009A000D56E320ED76ECF0ED66ED59EB40EE66ED5
:1009B000010EE66E8BD8E552E5520101F493B40EB8
:1009C000E66E010EE66E82D8E552E5520101F4931F
:1009D000E552E552E7CFD9FF1200828280889492D7
:1009E00092981200F2920201200EFA6F9F86010186
:1009F000F4A906D00201E00EF76F000EF86F05D0E3
:100A00000201C00EF76F000EF86F0101F4A1F47936
:100A1000F4A706D00201800EF56F000EF66F05D028
:100A20000201A00EF56F000EF66FC9CFFBF2F5C202
:100A3000E9FFF6C2EAFFF52B000EF623EF50C96E70
:100A400012009E96C9CFFBF20201FA51000823E280
:100A5000F7C2E9FFF8C2EAFFF72B000EF823FBC24A
:100A6000EFFFF5C2E9FFF6C2EAFFF52BF623EFCF61
:100A7000FBF2FBC2C9FFFA07FA510CE10101020EB9
:100A8000D26F0101F493F481320ED76ECF0ED66E81
:100A9000F294D58E01D0C96A1200D9CFE6FFE1CF1A
:100AA000D9FF0101F4A10ED0FD0EDBCFE6FFFE0E53
:100AB000DBCFE6FF09EC16F0E552E5529D96010109
:100AC000F4919D86E552E7CFD9FF1200D9CFE6FF1A
:100AD000E1CFD9FF0101F4B332D0FD0EDBCFE9FF46
:100AE000FE0EDBCFEAFF1E0EE926000EEA22EF50D3
:100AF000020809E1FD0EDBCFE6FFFE0EDBCFE6FFCD
:100B000069D8E552E552FD0EDBCFE9FFFE0EDBCFE3
:100B1000EAFF150EE926000EEA22EF9EFD0EDBCF5E
:100B2000E6FFFE0EDBCFE6FF77EC15F0E552E5526F
:100B30009D960101F477F4839D860101D12BE55246
:100B4000E7CFD9FF12009D960101F4919D86120016
:100B5000D9CFE6FFE1CFD9FF0001166BD950FD0FC9
:100B6000E96EFF0EDA20EA6E010EEE1801E1ED509B
:100B700002E1168101D0BA6AD950FB0FE96EFF0E6F
:100B8000DA20EA6E010EEE1801E1ED5002E1168363
:100B900001D0B76AD950F90FE96EFF0EDA20EA6E7C
:100BA000010EEE1801E1ED5002E1168501D0736AE5
:100BB000D950F70FE96EFF0EDA20EA6E010EEE183B
:100BC00001E1ED5002E1168701D0706AE552E7CFEE
:100BD000D9FF1200D9CFE6FFE1CFD9FFFD0EDBCF61
:100BE000E9FFFE0EDBCFEAFF1C0EE926000EEA222B
:100BF000EF6AFD0EDBCFE9FFFE0EDBCFEAFF170E3B
:100C0000E926000EEA22EF6AC6AE0ED0C69EFD0EA1
:100C1000DBCFE9FFFE0EDBCFEAFF170EE926000E61
:100C2000EA22010EEF6E22D0F150800B10E0F2505C
:100C3000080B0DE0FD0EDBCFE9FFFE0EDBCFEAFF78
:100C4000170EE926000EEA22020EEF6E0FD0F0A674
:100C50000DD0909EFD0EDBCFE9FFFE0EDBCFEAFF4D
:100C6000170EE926000EEA22030EEF6E250EC614BB
:100C7000250819E0FD0EDBCFE9FFFE0EDBCFEAFF12
:100C80001C0EE926000EEA22010EEF6EFD0EDBCFF0
:100C9000E9FFFE0EDBCFEAFF170EE926000EEA227F
:100CA000C6CFEFFF80D1C55019E0FD0EDBCFE9FFC5
:100CB000FE0EDBCFEAFF1C0EE926000EEA22020E32
:100CC000EF6EFD0EDBCFE9FFFE0EDBCFEAFF170E66
:100CD000E926000EEA22C5CFEFFF65D1D0BE19D0BC
:100CE000FD0EDBCFE9FFFE0EDBCFEAFF1C0EE9268F
:100CF000000EEA22030EEF6EFD0EDBCFE9FFFE0EC3
:100D0000DBCFEAFF170EE926000EEA22D0CFEFFF75
:100D10004AD19DB619D0FD0EDBCFE9FFFE0EDBCF29
:100D2000EAFF1C0EE926000EEA22040EEF6EFD0E0D
:100D3000DBCFE9FFFE0EDBCFEAFF170EE926000E40
:100D4000EA229DCFEFFF2FD19C5019E0FD0EDBCFA3
:100D5000E9FFFE0EDBCFEAFF1C0EE926000EEA22B9
:100D6000050EEF6EFD0EDBCFE9FFFE0EDBCFEAFFD7
:100D7000170EE926000EEA229CCFEFFF14D1080ED1
:100D80009F5C19E0FD0EDBCFE9FFFE0EDBCFEAFF33
:100D90001C0EE926000EEA22060EEF6EFD0EDBCFDA
:100DA000E9FFFE0EDBCFEAFF170EE926000EEA226E
:100DB0009FCFEFFFF8D0A25019E0FD0EDBCFE9FF87
:100DC000FE0EDBCFEAFF1C0EE926000EEA22070E1C
:100DD000EF6EFD0EDBCFE9FFFE0EDBCFEAFF170E55
:100DE000E926000EEA22A2CFEFFFDDD0A55019E0E0
:100DF000FD0EDBCFE9FFFE0EDBCFEAFF1C0EE9267E
:100E0000000EEA22080EEF6EFD0EDBCFE9FFFE0EAC
:100E1000DBCFEAFF170EE926000EEA22A5CFEFFF8F
:100E2000C2D0100EF214100819E0FD0EDBCFE9FF5E
:100E3000FE0EDBCFEAFF1C0EE926000EEA22090EA9
:100E4000EF6EFD0EDBCFE9FFFE0EDBCFEAFF170EE4
:100E5000E926000EEA22F2CFEFFFA5D0470EF114EB
:100E600019E0FD0EDBCFE9FFFE0EDBCFEAFF1C0E23
:100E7000E926000EEA220A0EEF6EFD0EDBCFE9FF37
:100E8000FE0EDBCFEAFF170EE926000EEA22F1CFB5
:100E9000EFFF89D0C00EF01419E0FD0EDBCFE9FFA3
:100EA000FE0EDBCFEAFF1C0EE926000EEA220B0E37
:100EB000EF6EFD0EDBCFE9FFFE0EDBCFEAFF170E74
:100EC000E926000EEA22F0CFEFFF6DD092A819D0EC
:100ED000FD0EDBCFE9FFFE0EDBCFEAFF1C0EE9269D
:100EE000000EEA220C0EEF6EFD0EDBCFE9FFFE0EC8
:100EF000DBCFEAFF170EE926000EEA2292CFEFFFC2
:100F000052D093B019D0FD0EDBCFE9FFFE0EDBCF40
:100F1000EAFF1C0EE926000EEA220D0EEF6EFD0E12
:100F2000DBCFE9FFFE0EDBCFEAFF170EE926000E4E
:100F3000EA2293CFEFFF37D03E0E94141C0819E03D
:100F4000FD0EDBCFE9FFFE0EDBCFEAFF1C0EE9262C
:100F5000000EEA220E0EEF6EFD0EDBCFE9FFFE0E55
:100F6000DBCFEAFF170EE926000EEA2294CFEFFF4F
:100F70001AD097BE18D0FD0EDBCFE9FFFE0EDBCFF7
:100F8000EAFF1C0EE926000EEA220F0EEF6EFD0EA0
:100F9000DBCFE9FFFE0EDBCFEAFF170EE926000EDE
:0E0FA000EA2297CFEFFFE552E7CFD9FF12000C
:020FAE00E50E4E
:100FB000E66E8CEC22F0E552F60ECF6E3B0ECE6E56
:100FC0009F90120055DB0C0EE126F2AC04D0F29C8F
:100FD00012DBF28C01D00FDBDECF2BF0DDCF2CF05B
:100FE0003B0E2B5EF60E2C5A0A0E2BC0DBFF0B0EAF
:100FF0002CC0DBFF020EDBCF2BF0030EDBCF2CF07F
:10100000040EDBCF2DF0050EDBCF2EF036DBE3EC4C
:1010100020F017C02BF018C02CF019C02DF01AC00A
:101020002EF0020E1D6E1E6A0A0EDBCF22F00B0E92
:10103000DBCF23F054EC1EF01BC02FF01CC030F0AF
:10104000050E226E236A1BC01DF01CC01EF0EBECC7
:1010500022F0316A326A1D502B261E502C2231504C
:101060002D2232502E22060E2BC0DBFF070E2CC085
:10107000DBFF080E2DC0DBFF090E2EC0DBFF060EC6
:10108000DBCF2BF0070EDBCF2CF0080EDBCF2DF0E3
:10109000090EDBCF2EF006DBD9CFE1FFE5D28DDAEA
:1010A000C8DAD9CFE1FFE0D2F7DAEECF2BF0EECFFE
:1010B0002CF0EECF2DF0EFCF2EF090D2EDDA020132
:1010C0005C51EE5C2B6E5D51EE582C6E5E51EE580D
:1010D0002D6E5F51EE582E6E81D2D9CFE6FFC4D26D
:1010E000C7DA0201885189111CE1FB0EDBCF9AF2AD
:1010F000FC0EDBCF9BF2FD0EDBCF9CF2FE0EDBCFB6
:101100009DF29AC296F29BC297F29CC298F29DC23F
:1011100099F2F29CF90EDBCF88F2FA0EDBCF89F25E
:101120007BD08A518B111CE1FB0EDBCFA2F2FC0EAF
:10113000DBCFA3F2FD0EDBCFA4F2FE0EDBCFA5F2D8
:10114000A2C29EF2A3C29FF2A4C2A0F2A5C2A1F2C3
:10115000F29CF90EDBCF8AF2FA0EDBCF8BF25CD079
:101160008C518D111CE1FB0EDBCFAAF2FC0EDBCF04
:10117000ABF2FD0EDBCFACF2FE0EDBCFADF2AAC2BE
:10118000A6F2ABC2A7F2ACC2A8F2ADC2A9F2F29C21
:10119000F90EDBCF8CF2FA0EDBCF8DF23DD08E5103
:1011A0008F111CE1FB0EDBCFB2F2FC0EDBCFB3F2F2
:1011B000FD0EDBCFB4F2FE0EDBCFB5F2B2C2AEF263
:1011C000B3C2AFF2B4C2B0F2B5C2B1F2F29CF90E42
:1011D000DBCF8EF2FA0EDBCF8FF21ED09051911141
:1011E0001CE1FB0EDBCFBAF2FC0EDBCFBBF2FD0E37
:1011F000DBCFBCF2FE0EDBCFBDF2BAC2B6F2BBC291
:10120000B7F2BCC2B8F2BDC2B9F2F29CF90EDBCFA4
:1012100090F2FA0EDBCF91F2F28C26D229DA88C254
:101220002BF089C22CF018DA07E11ADA05E1F29CFA
:101230000201886B896B33D08AC22BF08BC22CF0F1
:101240000BDA07E10DDA05E1F29C02018A6B8B6B88
:1012500026D08CC22BF08DC22CF0FED907E100DA2B
:1012600005E1F29C02018C6B8D6B19D08EC22BF0C4
:101270008FC22CF0F1D907E1F3D905E1F29C02010C
:101280008E6B8F6B0CD090C22BF091C22CF0E4D9F6
:1012900007E1E6D905E1F29C0201906B916BF28CBB
:1012A000E3D1F60ECF6E3B0ECE6E0201582B000E30
:1012B00059235A235B23020164510EE002016007A7
:1012C000000E615B625B635B020160516111621140
:1012D000631102E10201646B0201825106E0020126
:1012E000692B000E6A236B236C230201835106E0F5
:1012F00002016D2B000E6E236F23702302018451B7
:1013000006E00201712B000E722373237423020185
:10131000855106E00201752B000E76237723782392
:101320000201865106E00201792B000E7A237B230D
:101330007C230201875106E002017D2B000E7E23F3
:101340007F2380230201885189111BE00201960747
:10135000000E975B985B995B02019651971198116B
:1013600099110FE105D089C2FAFF02018851F96E87
:10137000FADF9AC296F29BC297F29CC298F29DC283
:1013800099F202018A518B111BE002019E07000EA7
:101390009F5BA05BA15B02019E519F11A011A11157
:1013A0000FE105D08BC2FAFF02018A51F96EFADF14
:1013B000A2C29EF2A3C29FF2A4C2A0F2A5C2A1F251
:1013C00002018C518D111BE00201A607000EA75BE4
:1013D000A85BA95B0201A651A711A811A9110FE1F1
:1013E00005D08DC2FAFF02018C51F96EFADFAAC254
:1013F000A6F2ABC2A7F2ACC2A8F2ADC2A9F202013A
:101400008E518F111BE00201AE07000EAF5BB05B87
:10141000B15B0201AE51AF11B011B1110FE105D0B6
:101420008FC2FAFF02018E51F96EFADFB2C2AEF23C
:10143000B3C2AFF2B4C2B0F2B5C2B1F20201905180
:1014400091111BE00201B607000EB75BB85BB95BF8
:101450000201B651B711B811B9110FE105D091C20F
:10146000FAFF02019051F96EFADFBAC2B6F2BBC2BE
:10147000B7F2BCC2B8F2BDC2B9F20201932B0201AD
:1014800093510A0809E201010101F451010B04E042
:1014900061EC1FF00201936B0301145124E0010180
:1014A0000101D551800B1FE1F6EC1EF00201925DA7
:1014B0001AE002015C515D115E115F1114E0FF0E34
:1014C0000201925D05E1F6EC1EF00201926F0BD075
:1014D000F6EC1EF00201926F1EEE00F02EEE00F010
:1014E000010EFC6E10001200C3D8FB0EDBCF2BF0F8
:1014F000FC0EDBCF2CF0FD0EDBCF2DF0FE0EDBCF94
:101500002EF02B502C102D102E1011E0FB0EDBCFE7
:1015100060F2FC0EDBCF61F2FD0EDBCF62F2FE0E5D
:10152000DBCF63F20201010E646F6451FEE19CD0D7
:101530009FD8FE0EDB5004E0FE0EDB50060804E2EE
:10154000FE0EDB50000E01D0010E8ED051D803E00C
:101550007BD8010EEF6E88D04BD802E075D8EF6AC9
:1015600083D046D80DE059D8FA0EDBCFEEFFFB0E44
:10157000DBCFEEFFFC0EDBCFEEFFFD0EDBCFEEFF91
:1015800073D076D8040EE12680D805E11B6A1C6A68
:101590001D6A1E6A0FD0F29C40D8EECFDFFF010E0D
:1015A000EECFDBFF020EEECFDBFF030EEECFDBFF55
:1015B000F28C3FD8D9CFE1FF57D05AD8040EE1269C
:1015C000F29C58C2DFFF010E59C2DBFF020E5AC265
:1015D000DBFF030E5BC2DBFFF28C12004ED868EC1F
:1015E00022F01BC0F3FF1CC0F4FFD9CFE1FF3CD0B9
:1015F0003FD845EF0BF0CE50DF6E010ECFCFDBFFB3
:10160000020E58C2DBFF030E59C2DBFF040E5AC2A2
:10161000DBFF050E5BC2DBFF1200FE0EDB50040D8C
:10162000F3CFE9FFF4CFEAFF650EE926020EEA22C6
:101630001200DECF1BF0DECF1CF0DECF1DF0DDCFC1
:101640001EF0DD52DD521200FE0EDB50EA6A810F01
:10165000E96E020EEA221200FD0EDB502B1812007A
:10166000FE0EDB502C181200E552E7CFD9FF120016
:10167000D9CFE6FFE1CFD9FF1200E80E206E030EAE
:10168000216E226A236A52EF0BF0FE0EDBCFE6FFDB
:101690004FDFE5520009120090DFD9CFE9FFDACF22
:1016A000EAFF12002BC01BF02CC01CF02DC01DF057
:0616B0002EC01EF0120026
:0A16B600BADA040EE12603014351E5
:1016C00001E17AD0020EDB6A030EF36E020EDBCF6D
:1016D000F4FFF350F45C70E2442B030E445D01E32D
:1016E000446BB1DAA8DAEF5064E0ADDA0A0E4FDAF3
:1016F000030EEFCFDBFFA7DA040E49DAEECF2DF0B1
:10170000EFCF2EF02DC0E6FF2EC0E6FF9CDA060ECE
:101710003EDAEF5040DA75DA2D50F35C2B6E2E5026
:10172000F4582BC0DEFFDD6EDECF2BF0DDCF2CF0CA
:10173000030EDB50FF0DF3CF2DF02E6A2DBE2E6869
:101740002C502E18E8AE02D02E3404D02D502B5C35
:101750002E502C5815E3DECF2FF0DDCF30F0030EE6
:10176000DBCF31F0326A31BE326832503018E8AE29
:1017700002D0303404D02F50315C305032581CE24B
:10178000030143512F6E306A43C31DF030C01EF079
:10179000DECF22F0DDCF23F027EC1EF028DA2D6A11
:1017A0002E6A2CAE02D02D682E6803014CDA16DAB0
:1017B00003D0020EDB2A88D7DDD138DAE652DF6AA1
:1017C000030EDF5C13E2DF50CBD9060EE0D9EFCF7A
:1017D0002BF0FE0EDB502B5C07E1DF50F5D92BC060
:1017E000F3FF2CC0F4FF04D0DF2AEAD7F36AF46ACF
:1017F000E552E552E7CFD9FF120018DA0F0E0FDAE3
:101800000B0EF3CFDBFF0C0EF4CFDBFFD9500B0F29
:10181000CED901E0D5D00A0EDB6A030EF36E0A0EB4
:10182000DBCFF4FFF350F45C11E20A0EDB50CCD9AD
:101830000B0E2BC0DBFF0C0E2CC0DBFFA1D9060E5C
:10184000A6D9EF5003E00A0EDB2AE7D7D9500B0FD9
:10185000AED901E1B5D094D9060E99D9FE0EDBCFF1
:10186000EFFF8ED9E8D9EF6A8BD9080E90D97D0E9B
:10187000EE6EED6A85D90A0E8AD9030EEF6E54EC2E
:1018800008F0F3CF2BF0F4CF2CF0010EF35C000E38
:10189000F458F5E34FEC08F0AAD91DC02DF01EC096
:1018A0002EF0D00E2B26070E2C22000E2D222E22DB
:1018B0002BC0DFFF010E2CC0DBFF020E2DC0DBFFB3
:1018C000030E2EC0DBFF080EDB6A090EDB6A040E76
:1018D000DB6A050EDB6A060EDB6A070EDB6AAED931
:1018E000EECF2BF0EECF2CF0EECF2DF0EFCF2EF091
:1018F0002BC0E6FF2CC0E6FF2DC0E6FF2EC0E6FFA2
:101900004FEC08F07ED9E552E7CF2CF0E552E7CF57
:101910002BF02B501B5C2C501C582D501D582E505A
:101920001E5828E2FE0EDB5036D90D0EF3CFDBFF3A
:101930000E0EF4CFDBFF0D0EDBCF2BF00E0EDBCF48
:101940002CF02D6A2E6AD950040FE96EDACFEAFF27
:1019500045D9080EDB2A090E01E3DB2A140EE66ED8
:10196000E66AE66AE66A74EC0AF0E552E552E55288
:10197000E552B5D7080EDBCF2DF0090EDBCF2EF0E8
:101980002F6A306A2DC020F02EC021F02FC022F027
:1019900030C023F0040EDBCF1BF0050EDBCF1CF0B4
:1019A000060EDBCF1DF0070EDBCF1EF068EC22F039
:1019B0001ED9E6D8040EEBD81BC0EEFF2CC0EDFFFD
:1019C000D9D0C3D809E018D9080EE1D8FC0EDBCF76
:1019D000EEFFFD0EDBCFEDFFCDD0B7D806E00CD982
:1019E0000A0ED5D8FD0EDBCFEFFFC4D01FD9030EF2
:1019F00016D9DE52F3CFDEFFF4CFDDFFDD52D95032
:101A0000010FD5D821E0D9D816D9EF501DE1D5D88E
:101A1000EE6AEE6AEE6AEE6AD0D80DD9010EEF6E6C
:101A2000030143510FE1B60EE66E160EE66E140E7C
:101A3000E66EE66AE66AE66A70EC08F0F56E060E97
:101A4000E15EF5500301432B95D07FD804E0D4D854
:101A5000F2D8EF5003E1FE0EDB500ED0CDD8EBD81C
:101A6000EF6A0301430708E1B60EE66E160EE66E56
:101A70000EEC09F0E552E5527DD0D8D8060ECFD84D
:101A8000040EF3CFDBFF050EF4CFDBFFD950040FBC
:101A90008ED803E1F36AF46A57D0F29CB9D8EECF3E
:101AA000DFFF010EEECFDBFF020EEECFDBFF030EFA
:101AB000EECFDBFFF28CACD8080E69D8EECF31F058
:101AC000EFCF32F0336A346A0A0ED89031363236AC
:101AD00033363436E806F9E1B1D8EECF2DF0EECF4B
:101AE0002EF0EECF2FF0EFCF30F0100E206E270E3D
:101AF000216E226A236A2DC01BF02EC01CF02FC05D
:101B00001DF030C01EF0E3EC20F017C02DF018C01F
:101B10002EF019C02FF01AC030F017C01BF018C0FB
:101B20001CF019C01DF01AC01EF031C020F032C0E8
:101B300021F033C022F034C023F0F3EC1DF057D86D
:101B40001BC0F3FF1CC0F4FF15D070D8020E67D87D
:101B5000F3CFDEFFF4CFDDFF71D8EE50ED101200B1
:101B60000B0DF3CFE9FFF4CFEAFFC00EE926020E1A
:101B7000EA221200D9CFE1FFE552E7CFD9FF1200E8
:101B80000B0EDBCFE9FF0C0EDBCFEAFF1200E926DC
:101B9000000EEA221200F76A700FF66E460EF72268
:101BA0000800F550E66EC4EC0FF0E5521200E96E45
:101BB000DACFEAFFEE50ED101200010EDBCFE9FFA5
:101BC000020EDBCFEAFF12000B0DF3CF2BF0F4CFA8
:101BD0002CF0C00E2B26020E2C2212002B50EE26CB
:101BE0002C50EE222D50EE222E50EE2212001BC061
:101BF0002BF01CC02CF01200DECFE9FFDDCFEAFF96
:101C00001200E552E7CF2EF0E552E7CF2DF012009B
:101C1000040EDBCFE9FF050EDBCFEAFF1200E12661
:101C2000FE0EDBCFE6FFC9DDE5521200D9CFE6FF9D
:101C3000E1CFD9FF1200070EC7EF0DF0D9CFE9FFB2
:0C1C4000DACFEAFF12004451B0EF0DF0C3
:041C4C0063DAFD0E4C
:101C5000DB0403E0FD0EDB5056E1FE0EDB50120A02
:101C60004EE0030A4AE0010A46E01F0A42E0010A88
:101C70003BE0030A37E0010A33E0070A2FE0010ADC
:101C800027E0030A23E0010A1FE00F0A1BE0010A14
:101C900014E0030A10E0010A0CE0070A08E0010A58
:101CA00004E0030A30E17DDA09D090DA07D081DA66
:101CB00005D083DA03D084DA01D085DA9314F310E7
:101CC000936E21D045DA06D02EDA04D06ADA02D03B
:101CD00060DAF70E9914F310996E15D024DA10D04B
:101CE00060DA0ED073DA0CD033DA9414F310946EF9
:101CF0000AD05FDA05D061DA03D062DA01D063DAA4
:101D00009A14F3109A6E0BD205DA92EC20F03DDAB9
:101D1000010EF6D9FD0EDBCFE6FF020EF1D9FC0E67
:101D2000DBCFE6FF030EECD9FB0EDBCFE6FF040EA4
:101D3000E7D9FA0EDBCFE6FF050EE2D9F90EDBCFCD
:101D4000E6FF060EDDD9F80EDBCFE6FF070ED8D989
:101D5000F70EDBCFE6FF080ED3D9F60EDBCFE6FF9A
:101D6000090ECED9F50EDBCFE6FF0A0EC9D9F40E67
:101D7000DBCFE6FF0B0EC4D9F30EDBCFE6FF0C0E74
:101D8000BFD9F20EDBCFE6FF0D0EBAD9F10EDBCFD5
:101D9000E6FF0E0EB5D9F00EDBCFE6FF0F0EB0D981
:101DA000EF0EDBCFE6FF100EABD9EE0EDBCFE6FF7A
:101DB000110EA6D9ED0EDBCFE6FF120EA1D9AFD1E1
:101DC000A9D9FE0EDB50120A4EE0030A4AE0010ACE
:101DD00046E01F0A42E0010A3BE0030A37E0010A3D
:101DE00033E0070A2FE0010A27E0030A23E0010A93
:101DF0001FE00F0A1BE0010A14E0030A10E0010AC9
:101E00000CE0070A08E0010A04E0030A31E1C9D93D
:101E100009D0DCD907D0CDD905D0CFD903D0D0D9BE
:101E200001D0D1D98A14F3108A6E24D091D906D06A
:101E30007AD904D0B6D902D0ACD9F70E9014F310E9
:101E4000906E18D070D910D0ACD90ED0BFD90CD0AC
:101E50007FD98B14F3108B6E0DD0ABD905D0ADD9D3
:101E600003D0AED901D0AFD99114F310916E02D046
:101E7000FE0EDB5054D14ED9FE0EDB50120A63E049
:101E8000030A5DE0010A57E01F0A51E0010A4CE035
:101E9000030A46E0010A40E0070A3AE0010A34E09A
:101EA000030A2EE0010A28E00F0A24E0010A1EE0DE
:101EB000030A18E0010A12E0070A0CE0010A06E032
:101EC000030A46E18150040B44E040D08150080BE6
:101ED00040E03CD08150100B3CE038D08150200BCA
:101EE00038E034D08150400B34E030D08150800B4A
:101EF00030E02CD0875019D08750020B2AE026D032
:101F00008750040B26E022D08750080B22E01ED019
:101F10008850020B1EE01AD08850040B1AE016D02D
:101F20008850080B16E012D08250010B12D0885056
:101F3000100B0FE00BD08850200B0BE007D088501F
:101F4000400B07E003D08850800B03E0010E01D066
:101F5000000EE5D0DFD8E66A18D978DEE552E55202
:101F6000FD0EDBCFE6FF11D92BDFE552E552D7D0CE
:101F7000D1D8E66A19D1CED8010EE66E15D1CAD8ED
:101F8000FE0EDBCF3FF3CBD0C5D80F0EE66EFE0EB4
:101F9000DB507F0BCCD807EC04F00009FCE1ADEC82
:101FA00022F047EC23F0C4502D6E2E6E2D6AC350E4
:101FB00000012D102B6E2EC02CF0F36E2EC0F4FFFE
:101FC000AED0A8D8E652D5D804E3FE0EDB501008F8
:101FD00003E2F36AF46A1FD0FE0EDB50F76A700F5B
:101FE000F66E460EF7220800F550DF6E0F0EE66E15
:101FF0007F0EDF149CD807EC04F00009FCE1ADEC87
:1020000022F047EC23F0C4502E6E2D6AC3502D10E1
:10201000F36E2EC0F4FFE55282D07CD8AAD804E338
:10202000FE0EDB50080803E2FE0EDB5064D0FD0E0E
:10203000DBCF2BF02B3427E2FE0EDB50080A1FE02B
:102040000F0A18E0010A14E0030A10E0010A0CE08C
:10205000070A08E0010A04E0030A15E179D80BD069
:1020600062D809D09ED807D0B1D805D0A2D803D065
:10207000A4D801D0A5D88D14F3108D6E04D068D8E3
:102080009114F310916EFC0EDBCF2BF02B3433E266
:10209000FE0EDB50080A2AE00F0A25E0010A20E0C4
:1020A000030A1AE0010A15E0070A0EE0010A08E037
:1020B000030A21E1FC0EDB50010BF36EFE0E18D07B
:1020C000FC0E6AD8FD0E14D0FC0E66D8F346FB0E4B
:1020D0000FD01BD8F70E0CD018D8F346EF0E08D04F
:1020E00014D84FD805D011D83FD802D00ED836D842
:1020F0008C14F3108C6E13D0FD0E4ED8F3461200E4
:10210000E66EA4DDE552E5521200FC0E45D8F3461A
:10211000F3461200D9CFE6FFE1CFD9FF1200E55216
:10212000E7CFD9FF1200FD0E37D8FD0E1200FE0BCF
:10213000FD0BE66EF10EE66E1BEC21F0E552E5526A
:10214000E5520A0EE66E22EC23F0E5524AEF23F048
:10215000FD0EDB50010BF36EFE0E1200F346F3464C
:10216000F346F3467F0E1200F346F346F346BF0EE6
:102170001200010EF36EFE0EDBCFF4FFF350F45CA1
:102180001200F346F346DF0E1200FE0EDBCFE6FF31
:102190001200B2DFF3461200DB50010BF36EF34680
:1021A0001200AADFFB0E1200F0DFD4DEE552E5528A
:1021B000B6D7EFDFF346EF0E1200EBDFC1EF10F002
:1021C000E8DFB4EF10F0E5DFAEEF10F0E2DFF70E7E
:0221D0001200FB
:0E21D200EAC12BF02FDAEAC11BF0EFD1EBC10E
:1021E0002BF029DAEBC11BF0E9D139DAE652DF6ACC
:1021F000FE0EDB50040A01E178D0070A5AE0010A1A
:102200001FE0030A01E0AED026DA14E0070A0CE072
:10221000010A04E0030A01E0A5D08DD00101D651E6
:10222000020B01E197D08FD00101D651040B01E1DF
:1022300091D089D00101D651080B01E18BD083D018
:10224000FD0EDB50080A30E00F0A29E0010A22E007
:10225000030A1BE0010A14E0070A0DE0010A06E088
:10226000030A01E07FD00101D75167D00101D751A6
:10227000020B70E068D00101D751040B6BE063D012
:102280000101D751080B66E05ED00101D651100B59
:1022900061E059D00101D651200B5CE054D001011E
:1022A000D651400B57E04FD00101D651800B52E080
:1022B0004AD0D1D915E0070A0EE0010A07E0030A67
:1022C00051E10101D651100B45E03DD00101D6513D
:1022D000200B40E038D00101D651400B3BE033D019
:1022E0000101D651800B36E02ED0FD0EDB50080ADE
:1022F00033E00F0A2AE0010A22E0030A1CE0010A87
:1023000015E0070A0EE0010A07E0030A2BE10101CC
:10231000D751100B1FE017D00101D751200B1AE045
:1023200012D00101D751400B15E00DD00101D7515A
:10233000800B10E008D00101D651010B0BD0010138
:10234000D651020B07E0010E05D00101D651040B56
:1023500001E0010EDF6E06D00101D651080B01E04D
:10236000010EDF6EDF50E55262D179D9E6527F0E61
:10237000DF6EFE0EDB50040A42E0070A2CE0010A81
:1023800016E0030A4FE167D90FE0070A0AE0010AE5
:1023900005E0030A47E1DEC1DFFF44D0DAC1DFFF19
:1023A00041D0E2C1DFFF3ED0E6C1DFFF3BD053D9D1
:1023B0000FE0070A0AE0010A05E0030A33E1DFC182
:1023C000DFFF30D0DBC1DFFF2DD0E3C1DFFF2AD03C
:1023D000E7C1DFFF27D03FD90FE0070A0AE0010A73
:1023E00005E0030A1FE1E0C1DFFF1CD0DCC1DFFF15
:1023F00019D0E4C1DFFF16D0E8C1DFFF13D02BD91D
:102400000FE0070A0AE0010A05E0030A0BE1E1C157
:10241000DFFF08D0DDC1DFFF05D0E5C1DFFF02D05F
:10242000E9C1DFFFDF50E55202D119D9FD0EDB50C3
:1024300002E0FD0EDB04FE0EDB500A0A3DE0030A5B
:1024400037E0010A32E00F0A29E0010A22E0030A1C
:102450001BE0010A16E0070A10E0010A0BE0030A7C
:1024600005E0010A30E100D9FE0E1BD0FDD8F3468D
:10247000FD0E17D0CFD8FB0E14D0CCD8F346F70EF4
:1024800010D0F8D8DF0E0DD0C5D8F346F346EF0EC6
:1024900008D0F0D8F346F3467F0E03D0EBD8F346CE
:1024A000BF0E3715F310376F0ED0CFD8FE0E08D001
:1024B000CCD8F346FD0E04D0C8D8F346F346FB0E45
:1024C000B515F310B56FB3D0CAD8FE0EDBCF38F315
:1024D000AED00101D5BB03D037C3B4F1120038C36D
:1024E000B4F112009BD841DFE552E552DF6EFB0EDE
:1024F000DB500AE0DF502B6E2C6AFF0ED8802B5683
:10250000000E2C562B50DF6EDFCFE6FFFC0EDBCF2C
:10251000E6FF19EC17F0E552E552E55288D0AFD846
:10252000FB0EDB0404E1E668DFCFE6FF07D0FB0E1D
:10253000DB5002080BE1DFCFE6FFE668FC0EDBCFE5
:10254000E6FF0DEC10F0E552E552E552E5526FD092
:1025500086D8FE0EDB50060A1EE0030A18E0010AC8
:1025600012E0070A0CE0010A06E0030A18E1FD0E7A
:10257000DBCFB6F116D0FD0EDBCFB7F112D0FD0EDA
:10258000DBCFCCF10ED0FD0EDBCFCDF10AD0FD0EAE
:10259000DBCFCEF106D0FD0EDBCFCFF102D0FE0EA9
:1025A000DB5045D06CD8DFCFE6FFFC0EDBCFE6FF7B
:1025B000E0EC0EF0E552E552E55239D02CC01CF0AB
:1025C0002DC01DF02EC01EF0E3EC20F017C02BF044
:1025D00018C02CF019C02DF01AC02EF0206A010E80
:1025E000216E226A236A17C01BF018C01CF019C0A4
:1025F0001DF01AC01EF0F3EC1DF01BC02BF01CC028
:102600002CF01DC02DF01EC02EF01BC0F3FF1CC00F
:10261000F4FF120029D8F346F346120020D8E65200
:10262000FD0EDBCFE6FFFE0EDBCFE6FF1200E5522C
:10263000E7CFD9FF12002C6A2D6A2E6A1C0E206E7D
:10264000060E216E226A236A1200FD0EDB50010184
:10265000010BF36E1200FD0EDB50040A1200D9CFFD
:10266000E6FFE1CFD9FF1200FD0EDB500301010BA5
:10267000F36E1200CFDFF346F346F3461200CEDFCF
:0A268000B4DDE552E552DF6E1200F2
:06268A00D8CFE4FFE0CF11
:10269000E4FFE46EDACFE4FFE2CFDAFFE9CFE4FF54
:1026A000EACFE4FFF3CFE4FFF4CFE4FF00EE17F04E
:1026B000140EE80403E3EECFE4FFFBD700EE2BF0AB
:1026C0000A0EE80403E3EECFE4FFFBD7E652E1D9BC
:1026D000030EE126A450200B05E0A350200B02E0DE
:1026E0009FEC19F09EA003D09E9051EC09F09E50F3
:1026F000200B05E09D50200B02E079EC19F09E5074
:10270000100B05E09D50100B02E0CDEC19F0A45029
:10271000100B05E0A350100B02E0DFEC19F0F050B5
:10272000020B15E0F050100B12E0030120512111B3
:102730000DE02FC3E6FF010EE66E05D021C3FAFFC0
:1027400003012051F96EFADFE552E552F092F050A4
:10275000040B15E0F050200B12E00301225123116D
:102760000DE030C3E6FF020EE66E05D023C3FAFF8C
:1027700003012251F96EFADFE552E552F094F2506E
:10278000010B01E18AD0F250080B01E186D08150A3
:10279000DF6EF290DF5003012C19E76E010EE7CFD8
:1027A000DBFFDFCF2CF3DBA81BD02451251118E071
:1027B000100EDF1402E0010E01D0000E49D9030112
:1027C000315D0EE1020EDBCFE6FF030EE66E05D0B3
:1027D00025C3FAFF03012451F96EFADFE552E552F1
:1027E000010EDBAA1CD003012651271118E0200E90
:1027F000DF1402E0010E01D0000E2AD90301325D80
:102800000EE1020EDBCFE6FF040EE66E05D027C315
:10281000FAFF03012651F96EFADFE552E552010E87
:10282000DBAC1CD003012851291118E0400EDF1445
:1028300002E0010E01D0000E0BD90301335D0EE161
:10284000020EDBCFE6FF050EE66E05D029C3FAFFC8
:1028500003012851F96EFADFE552E552010EDBAEB5
:102860001CD003012A512B1118E0800EDF1402E066
:10287000010E01D0000EECD80301345D0EE1020E12
:10288000DBCFE6FF060EE66E05D02BC3FAFF030191
:102890002A51F96EFADFE552E552D9CFE1FFE55250
:1028A000E7CFD9FFE55200EE34F00A0EE80403E367
:1028B000E5CFEDFFFBD700EE2AF0140EE80403E3AA
:1028C000E5CFEDFFFBD7E5CFF4FFE5CFF3FFE5CF95
:1028D000EAFFE5CFE9FFE5CFDAFFE550E5CFE0FF1E
:1028E000E5CFD8FF1000F09EF192F19081CF2CF34C
:1028F000F290F2861200B2D841E0030A34E0010AF5
:1029000027E0070A1AE0010A0DE0030A42E1FB0E84
:10291000DBCF20F3FC0EDBCF21F3938491D8A4D836
:10292000F08839D0FB0EDBCF22F3FC0EDBCF23F394
:10293000938686D8A2D8F08A2ED0FD0EDBCF31F355
:10294000FB0EDBCF24F3FC0EDBCF25F3938823D0E3
:10295000FD0EDBCF32F3FB0EDBCF26F3FC0EDBCF1D
:1029600027F3938A18D0FD0EDBCF33F3FB0EDBCFBA
:1029700028F3FC0EDBCF29F3938C0DD0FD0EDBCFBB
:1029800034F3FB0EDBCF2AF3FC0EDBCF2BF3938E5D
:1029900002D0FE0EDB50F28C78D07BD8FE0EDB50DE
:1029A000060A1CE0030A16E0010A10E0070A0AE022
:1029B000010A05E0030A15E143D856D812D040D8E1
:1029C0005CD80FD0FD0EDBCF31F30BD0FD0EDBCF8B
:1029D00032F307D0FD0EDBCF33F303D0FD0EDBCF98
:1029E00034F353D03BD820E0030A1AE0010A14E084
:1029F000070A0EE0010A07E0030A1AE1F098030152
:102A0000206B216B17D0F09A0301226B236B12D03D
:102A10000301246B256B0ED00301266B276B0AD0B4
:102A20000301286B296B06D003012A6B2B6B02D0A4
:102A3000FE0EDB50F28C29D01200120012001200A0
:102A4000FD0EDB50010BF36EF346F346F346120026
:102A5000E76E020EE7CFDBFFDB5012001AD8F29CC4
:102A6000FE0EDB50060A1200F346EF0EF114F310CF
:102A7000F16EFD0EDBCF2FF31200F70EF114F31001
:102A8000F16EFD0EDBCF30F31200E552E7CFD9FF38
:0C2A90001200D9CFE6FFE1CFD9FF120001
:042A9C00000EE96ED1
:102AA000EA6E04005BEC15F0EA2A080EEA5CD8A492
:102AB00051EF15F01200EF6AE93E5BEF15F01200DE
:102AC000FF0EE3CF09F009380F0B060FD8B2070F3E
:102AD0002A0FAD6E4BEC1CF009500F0B060FD8B24D
:102AE000070F2A0FAD6E4BEC1CF0000C1200EACF62
:102AF00004F0E9CF05F0FF0EE3CFEAFFFE0EE3CFCF
:102B0000E9FFF4A741D0EECFA0F0EECFA1F0EECFD9
:102B1000A2F0EECFA3F0EECFA4F0EECFA5F0EECF73
:102B2000A6F0EECFA7F0EECFA8F0EECFA9F0EECF53
:102B3000AAF0EECFABF0EECFACF0EECFADF0EECF33
:102B4000AEF0EECFAFF0EECFB0F0EECFB1F0EECF13
:102B5000B2F0EECFB3F0EECFB4F0EECFB5F0EECFF3
:102B6000B6F0EECFB7F0EECFB8F0EECFB9F0EECFD3
:102B7000BAF0EECFBBF0EECFBCF0EECFBDF0EECFB3
:102B8000BEF0EECFBFF040D0EECF80F0EECF81F0C0
:102B9000EECF82F0EECF83F0EECF84F0EECF85F073
:102BA000EECF86F0EECF87F0EECF88F0EECF89F053
:102BB000EECF8AF0EECF8BF0EECF8CF0EECF8DF033
:102BC000EECF8EF0EECF8FF0EECF90F0EECF91F013
:102BD000EECF92F0EECF93F0EECF94F0EECF95F0F3
:102BE000EECF96F0EECF97F0EECF98F0EECF99F0D3
:102BF000EECF9AF0EECF9BF0EECF9CF0EECF9DF0B3
:102C0000EECF9EF0EECF9FF004C0EAFF05C0E9FFD3
:102C10001200F4A11200EACF04F0E9CF05F0FF0E94
:102C2000E3CFEAFFFE0EE3CFE9FFF4A941D0C0C035
:102C3000EEFFC1C0EEFFC2C0EEFFC3C0EEFFC4C0D6
:102C4000EEFFC5C0EEFFC6C0EEFFC7C0EEFFC8C0B6
:102C5000EEFFC9C0EEFFCAC0EEFFCBC0EEFFCCC096
:102C6000EEFFCDC0EEFFCEC0EEFFCFC0EEFFD0C076
:102C7000EEFFD1C0EEFFD2C0EEFFD3C0EEFFD4C056
:102C8000EEFFD5C0EEFFD6C0EEFFD7C0EEFFD8C036
:102C9000EEFFD9C0EEFFDAC0EEFFDBC0EEFFDCC016
:102CA000EEFFDDC0EEFFDEC0EEFFDFC0EEFF40D086
:102CB000E0C0EEFFE1C0EEFFE2C0EEFFE3C0EEFFDA
:102CC000E4C0EEFFE5C0EEFFE6C0EEFFE7C0EEFFBA
:102CD000E8C0EEFFE9C0EEFFEAC0EEFFEBC0EEFF9A
:102CE000ECC0EEFFEDC0EEFFEEC0EEFFEFC0EEFF7A
:102CF000F0C0EEFFF1C0EEFFF2C0EEFFF3C0EEFF5A
:102D0000F4C0EEFFF5C0EEFFF6C0EEFFF7C0EEFF39
:102D1000F8C0EEFFF9C0EEFFFAC0EEFFFBC0EEFF19
:102D2000FCC0EEFFFDC0EEFFFEC0EEFFFFC0EEFFF9
:102D300004C0EAFF05C0E9FF1200F2B41200165009
:102D40000F0AD8B41200FF0EE3CF0AF0FE0EE3CF55
:102D50000BF0FD0EE3CF0CF0FC0EE3CF0DF00A2AD2
:102D600016A08D8E0B2A16A28F800C2A16A48F8691
:102D70000D2A16A68F880E6A0F6A106A116AF0EC87
:102D800016F00A2EC6EF16F016A08D9E0B2ECBEF76
:102D900016F016A28F900C2ED0EF16F016A48F9678
:102DA00000000D2ED6EF16F016A68F9800000E2EFE
:102DB000DBEF16F0129000000F2EE0EF16F01292EB
:102DC0000000102EE5EF16F012940000112EEAEF2D
:102DD00016F0129612EC17F0133EC1EF16F0120027
:102DE000D70E136E000000000000000008EC17F082
:102DF000132EF2EF16F0D70E136E00000000000045
:102E0000000008EC17F0132EFDEF16F00000120082
:102E100000000BEF17F000000000000000000000B1
:102E200000001200030E146E0000142E14EF17F0B1
:022E300012008E
:0E2E320095D9FE0EDB50100A5AE01F0A54E03C
:102E4000010A4EE0030A48E0010A42E0070A3CE0BA
:102E5000010A36E0030A30E0010A2AE00F0A24E002
:102E6000010A1EE0030A18E0010A12E0070A0CE05A
:102E7000010A06E0030A40E1FD0EDBCFB8F13ED0C7
:102E8000FD0EDBCFB9F13AD0FD0EDBCFBAF136D073
:102E9000FD0EDBCFBBF132D0FD0EDBCFBCF12ED06F
:102EA000FD0EDBCFBDF12AD0FD0EDBCFBEF126D06B
:102EB000FD0EDBCFBFF122D0FD0EDBCFC0F11ED067
:102EC000FD0EDBCFC1F11AD0FD0EDBCFC2F116D063
:102ED000FD0EDBCFC3F112D0FD0EDBCFC4F10ED05F
:102EE000FD0EDBCFC5F10AD0FD0EDBCFC6F106D05B
:102EF000FD0EDBCFC7F102D0FE0EDB5009D12FD97A
:102F0000FD0EDBCF2BF0FE0EDBCF2CF02C3407E2D6
:102F10002B50FF08000E2C5402E2FF0E0AD0FE0ECA
:102F2000DBCF2CF0800E2C1402E0000E02D0FD0E40
:102F3000DB50EED0D0D8F80EDB5003E01BD92B507D
:102F4000DF6EF70EDB5004E018D9010E2BC0DBFF5B
:102F5000DFCFE6FFFA0EB9D8010EDBCFE6FFF90EA0
:102F6000B4D8D9CFE1FFD4D0B6D8F60EDB5002E109
:102F7000D8D801D0FFD82B50E66EFA0EA6D8F50EA1
:102F8000DB5002E1C9D801D0F8D82B50E66EF90E1B
:102F90009CD8F40EDB5002E1C4D801D0EBD82B5002
:102FA000E66EF80E92D8F30EDB5002E1B5D801D0F0
:102FB000E4D82B50E66EF70E88D8D9CFE1FFA8D021
:102FC000A4D80201E36FE46B7F0EE35F000EE45BC5
:102FD000ACD80201E56FE66B7F0EE55F000EE65BA5
:102FE000E351E525E96FE451E621EA6FE351E55D40
:102FF000E76FE451E659E86FF80EDB5004E0E76D47
:10300000E81F000EE823F70EDB5004E0E96DEA1F2D
:10301000000EEA237F0E2C6AE7252B6EE8516CD850
:10302000E66EFA0E52D87F0E02012C6AE9252B6E4D
:10303000EA5162D8E66EF90E48D86AD066D8020125
:10304000EB6FEC6B7F0EEB5F000EEC5B6ED802015A
:10305000ED6FEE6B7F0EED5F000EEE5BEB51ED253D
:103060002B6EEC51EE2180D80201F16FF26BEB5127
:10307000ED5D2B6EEE51EC5577D80201EF6FF06BE2
:10308000F60EDB5002E05BD802D0EFC2E6FFFA0E8C
:103090001CD8F40EDB5002E052D802D0EFC2E6FF9B
:1030A000F80E13D8F50EDB5002E051D802D0F1C271
:1030B000E6FFF90E0AD8F30EDB5002E048D802D042
:1030C000F1C2E6FFF70E01D823D0DBCFE6FFB1DE79
:1030D000E552E552120043D8020EE1262BD8DF6EEE
:1030E00024D8E76E010EE7CFDBFF1200FF0ED88079
:1030F0002B56000E2C5612002C222BC0E6FF2CC0A3
:10310000E6FFFDDEE552E552120029D89AEF18F0ED
:10311000E552E7CFD9FF1200010EDB502B6E2C6A6F
:103120001200DF502B6E2C6A1200FB0EDBCFE6FF85
:10313000FC0E26D0FD0EDBCFE6FFFE0E21D0EFC247
:103140002BF0F0C22CF0D2DF2B50E66E1200F1C251
:103150002BF0F2C22CF0CADF2B50E66E1200D9CF52
:10316000E6FFE1CFD9FF12002C6E7F0E2B26000E5A
:103170007CEF18F0D6DF76EF18F0CEDF76EF18F0A0
:0E318000DBCFE6FFB5EC11F0E552E552120090
:02318E00150E1C
:10319000E66E010EE66E0DD8E552E5520101FE69BC
:1031A000FF69150EE66E010EE66E28D8E552E5526F
:1031B00012001ED9020EE12624D9010E2BC0DBFF1E
:1031C000FE0EDB50010B05E0010EDBCFE6FFFC0E2F
:1031D00004D0010EDBCFE6FFEC0EE66EB4EC21F07E
:1031E000E552E5529F989F9A949C948EAE50DF6E64
:1031F000AE50DF6E9E9AD9CFE1FFFFD0F9D8E652EC
:1032000000D92B50DF6EFE0EDB50010B04E0DFCF48
:10321000E6FFFC0E03D0DFCFE6FFEC0EE66E82EC9D
:1032200021F0E552E552A59AA59898929884E55226
:10323000E4D0DED8E6520301045102E1000E0FD0C3
:103240000051002BEA6A020FE96E010EEA22EFCF6D
:10325000DFFF1F0E00179D9A04079D8ADF50E5527D
:10326000CCD0030104511200030105511200C0D853
:10327000E6520301055102E1000E0FD00151012B6E
:10328000EA6A220FE96E010EEA22EFCFDFFF3F0E5E
:103290000117A39A0507A38ADF50E552AED0A8D83C
:1032A000400E03010E5DFCE29D980C510C2BEA6A66
:1032B000620FE96E010EEA22FE0EDBCFEFFF3F0E3A
:1032C0000C170E2B9D8899D093D8100E03010F5D1B
:1032D000FCE2A3980D510D2BEA6AA20FE96E010ED4
:1032E000EA22FE0EDBCFEFFF0F0E0D170F2BA38888
:1032F00084D0200E0301045D13E20251022BEA6A1E
:10330000020FE96E010EEA22AECFEFFF1F0E021789
:10331000042BABA203D0AB98AB88062BABB4082B25
:10332000120066D8FD0EDBCF10F3FE0EDBCF11F3DB
:1033300064D003011051111101E1000C010C58D8A7
:10334000E6526E50DF6E0301105111110BE0DFCF1A
:10335000E6FF05D011C3FAFF03011051F96EFADF41
:10336000E5520FD0400E055D0CE20351032BEA6AD3
:10337000220FE96E010EEA22DFCFEFFF3F0E0317A7
:10338000052B6BA204D06B986B880301072B6BA4F1
:1033900002D00301092BE55230D003010E5102E1A6
:1033A0009D9812000A510A2BEA6A620FE96E010E1B
:1033B000EA22EF50AD6E3F0E0A170E07120003010E
:1033C0000F5102E1A39812000B510B2BEA6AA20FD6
:1033D000E96E010EEA22EF506D6E0F0E0B170F070C
:1033E000120006D8FE0EDBCFE6FF59DFE55205D00E
:1033F000D9CFE6FFE1CFD9FF1200E552E7CFD9FFE1
:103400001200FF0EE76EFD0EDBCF2BF0E7502B1600
:043410002C6A120010
:0C341400496C6C6567616C20706F72740D
:10342000206E756D62657220256420696E2053657B
:103430007452656C61790D004572726F723A206941
:103440006E76616C696420616E616C6F6720706F6D
:103450007274206E756D6265722025640D00496C72
:103460006C6567616C20494F20706F727420256411
:103470002072657175657374656400496C6C65676D
:10348000616C20494F20706F727420256420726532
:10349000717565737465640D00496C6C6567616C6A
:1034A00020706F727420646972656374696F6E0056
:1034B00055736572206279746520696E6465782041
:1034C0006F7574206F662072616E67653A2025649F
:1034D000004C454420646F6573206E6F74206578DE
:1034E0006973740D0056616C7565206D7573742079
:1034F0006265203020286F666629206F7220312097
:10350000286F6E290D00496E76616C6964204F4901
:1035100020506F72740D00496E76616C6964204FA3
:10352000492046756E6374696F6E0D005472796937
:103530006E6720746F2073746F70204779726F20EC
:103540006F6E20706F7274202564207768696368DD
:10355000207761732063757272656E746C79206E6A
:103560006F742072756E6E696E670D00546F6F20F8
:103570006D616E79206779726F73206265696E671D
:1035800020696E697469616C697A65640D005469BB
:103590006D6572206E756D62657220282564292024
:1035A0006F7574206F662072616E67650D00556ED1
:1035B000726567697374657220696E74657272757D
:1035C00070743A20706F7274202564206973206FC4
:1035D0007574206F662072616E67650D00526567B5
:1035E000697374657220696E746572727570743A6D
:1035F00020706F7274202564206973206F757420A9
:103600006F662072616E67650D0053657474696E34
:10361000672050574D207769746820626164207676
:10362000616C75652025640A005374617274496E7B
:103630007465727275707457617463686572282559
:10364000642C2025642920646972656374696F6E37
:10365000206D7573742062652031206F7220300DEB
:1036600000496E7465727275707420776174636856
:10367000657220706F727420282564292069732078
:0E3680006F7574206F662072616E67650D00B5
:02368E00D9CF92
:10369000E6FFE1CFD9FF020EE126FC0EDB502B6ED8
:1036A0002C6A010E2B1830E12C502EE1FE0EDB505F
:1036B0002B6E2C6AFF0ED8802B56000E2C562B50EA
:1036C000E66E020EE66E19EC17F0E552E552FE0EBC
:1036D000DB502B6E2C6AFF0ED8802B56000E2C561A
:1036E0002B50E66E0A0EE66E19EC17F0E552E55225
:1036F000FD0EDB50E66E030EE66E19EC17F0E55298
:10370000E552FD0EDB50BAD0FE0EDB502B6E2C6A5C
:103710002C341BE22B507F08000E2C5416E2FE0EB8
:10372000DB502B6E2C6A7F0E2B5E000E2C5A020E85
:10373000226E236A2BC01DF02CC01EF0CDEC1DF0B4
:103740001DC02BF07F0E1D241CD0FE0EDB502B6EF7
:103750002C6A7F0ED8802B56000E2C56020E226E3D
:10376000236A2BC01DF02CC01EF0CDEC1DF01DC037
:103770002BF01EC02CF07F0ED8802B56000E2C563E
:103780002B50DF6EFD0EDB502B6E2C6A2C341FE2AB
:103790002B507F08000E2C541AE2FD0EDB502B6ECE
:1037A0002C6A7F0E2B5E000E2C5A020E226E236AAC
:1037B0002BC01DF02CC01EF0CDEC1DF01DC02BF059
:1037C0001EC02CF07F0E2B26000E2C221BD0FD0ECF
:1037D000DB502B6E2C6A7F0ED8802B56000E2C5699
:1037E000020E226E236A2BC01DF02CC01EF0CDEC01
:1037F0001DF01DC02BF01EC02CF07F0ED8802B5664
:10380000000E2C56010E2BC0DBFFDFCF2BF02C6AF5
:103810002BBE2C68FF0ED8802B56000E2C562B503A
:10382000E66E020EE66E19EC17F0E552E552DFCFB8
:103830002BF02C6A2BBE2C68FF0ED8802B56000E66
:103840002C562B50E66E0A0EE66E19EC17F0E55278
:10385000E552010EDBCF2BF02C6A2BBE2C682B50CF
:10386000E66E030EE66E19EC17F0E552E552010E16
:10387000DBCF2BF02C6A2BBE2C682B50E66E040E8F
:10388000E66E19EC17F0E552E552D9CFE1FFE552AB
:06389000E7CFD9FF120092
:0A3896009EA8FED71200CDD8FE0E4A
:1038A000DBCFE6FF60EC15F0E552B9D0C5D80201D8
:1038B000E150FD0F506FFF0EDA20516F010EEA6AE2
:1038C0005025E96E5151EA22B1D850C2E9FF51C2E8
:1038D000EAFFACD8A4D0B0D8FD0EDBCF2BF0FE0EA3
:1038E000DBCF2CF02D6A2BC0E6FF2CC0E6FF2DC0ED
:1038F000E6FF000EE66E020EE66E41EC22F0F56E7B
:10390000050EE15EF550000EE66E020EE66E5AEC14
:1039100022F0E552E552F3CF54F2F4CF55F2020112
:10392000F43408E254515008000E555503E2500E8D
:10393000546F556B566B576B57515519E8AE02D003
:10394000553504D05451565D555157590EE2000E6D
:103950005625E96E020E5721EA6EEF50AD6E9BDFE1
:103960000201562B000E5723E7D7E552E7CFD9FFC8
:10397000120062D80201526B1A0E525D0DE2FD0E6A
:10398000DBCFE9FFDB2AFE0EDBCFEAFF01E3DB2A18
:103990004DD80201522BF0D742D00201D40E506F05
:1039A000010E516F0101D4510301396F3A6B3B5144
:1039B000391902E13C513A1916E00101F4B50ED073
:1039C0003BC3E6FF60EC15F0E55239C3E6FF60EC5F
:1039D00015F0E5520D0EAD6E5EDF0101F49539C3B1
:1039E0003BF33AC33CF303013B2B000E3C233C3535
:1039F00007E23B51FF08000E3C5502E23B6B3C6B7B
:103A00001200150EE66E3C0EE66EB4EC21F0E552A7
:103A1000E552320EE66E12EC23F0E55212000D0E66
:103A2000AD6E39DFE552E7CFD9FF1200EF50E66EF9
:103A300060EC15F0E5521200D9CFE6FFE1CFD9FFD7
:023A4000120072
:0E3A4200D9CFE6FFE1CFD9FF0B0EE1267F0EB4
:103A5000DF6EDE52DD6EF36E020EF3CFDBFF7F0E04
:103A6000F36E030EF3CFDBFF040EDB6A050EDB6A99
:103A7000060EDB6A070EDB6A080EDB6A7F0EF36E4A
:103A8000090EF3CFDBFF7F0EF36E0A0EF3CFDBFFE1
:103A9000010EE66EADEC1FF0E552020EE66EADECE7
:103AA0001FF0E552030EE66EADEC1FF0E552040E7A
:103AB000E66EADEC1FF0E552010EE66EACEC0AF0DE
:103AC000E552020EE66E030EE66EB5EC11F0E5521D
:103AD000E552DF6E030EE66EE66EB5EC11F0E552D0
:103AE000E552E76E010EE7CFDBFFE66E020EE66EF3
:103AF000F5EC10F0E552E552E76E080EE7CFDBFF7C
:103B0000020EE66E010EE66EB5EC11F0E552E552DE
:103B1000E76E090EE7CFDBFF020EE66EE66EB5EC50
:103B200011F0E552E552E76E0A0EE7CFDBFF080E13
:103B3000DB50E66E0A0EDB50E66E090EDB50E66ED9
:103B400047EC1BF0E552E552E552DF502B6E2C6A34
:103B5000D8902C5004E6730E2B5C000E2C5808E213
:103B6000370EE66E060EE66E19EC17F0E552A8D792
:103B7000DF502B6E2C6A2C3407E22B508C08000E81
:103B80002C5402E2C80E01D07F0EE66E060EE66EE1
:0A3B900019EC17F0E552E55294D746
:063B9A00256A23AED6EF00
:103BA0001DF0226C231EE86A2322251E1EAEDEEFC6
:103BB0001DF01D6C1E1EE86A1E22251EEBEC22F075
:103BC0001EBEEEEF1DF025AE000C1D6C1E1EE86A39
:103BD0001E22196C1A1EE86A1A22000C25BEE5EF97
:103BE0001DF02688FF0C256AE86A23AE00EF1EF060
:103BF000206C211E221E231E212222222322251E6A
:103C00001EAE0BEF1EF01B6C1C1E1D1E1E1E1C226A
:103C10001D221E22251E68EC22F01EBE22EF1EF081
:103C200025AE000C1B6C1C1E1D1E1E1EE86A1C22ED
:103C30001D221E22176C181E191E1A1E1822192268
:103C40001A22000C25BE12EF1EF02688FF0C1EC0A3
:103C50002AF01DC029F01D502202F4CF1CF0F3CF32
:103C60001BF01E502302F4CF1EF0F3CF1DF02202F2
:103C7000F3501C26F4501D22E86A1E22295023020C
:103C8000F3501C26F4501D22E86A1E2223AE4DEF8D
:103C90001EF029501D5E2A501E5A2AAE000C2250DA
:103CA0001D5E23501E5A000C1DC029F01D5022021B
:103CB000F4CF1CF0F3CF1BF01E502302F4CF1EF004
:103CC000F3CF1DF02202F3501C26F4501D22E86AA7
:103CD0001E2229502302F3501C26F4501D22E86AAC
:043CE0001E22000C94
:0C3CE400D9CFE6FFE1CFD9FF0B0EE1269F
:103CF000DF6ADE52640EDD6EF36E020EF3CFDBFF81
:103D0000030EDB6A040EDB6A050EDB6A060EDB6A55
:103D1000070EDB6A080EDB6A090EDB6A0A0EDB6A35
:103D2000880EE66E130EE66EE66AE66A74EC0AF03A
:103D3000E552E552E552E552E668280EE66E15ECCE
:103D400022F0E552E552920EE66E090EE66EE66A44
:103D5000E66A74EC0AF0E552E552E552E5527F0E50
:103D6000E66EE66E15EC22F0E552E552D00EE66EF8
:103D7000070EE66EE66AE66A74EC0AF0E552E55272
:103D8000E552E552EB0EE66E8C0EE66E15EC22F077
:103D9000E552E5522C0EE66E010EE66EE66AE66A24
:103DA00074EC0AF0E552E552E552E552E668280E59
:103DB000E66E15EC22F0E552E552E80EE66E030ED3
:103DC000E66EE66AE66A74EC0AF0E552E552E55200
:103DD000E5527F0EE66EE66E15EC22F0E552E552F6
:0C3DE000D9CFE1FFE552E7CFD9FF120078
:043DEC00030114516A
:103DF00002E0140505E10101D551400B0EE0010C74
:103E00005EEC08F0030114512D6E2E6AF3502D5C08
:103E1000F4502E5801E2000C010E12000101D551A0
:103E2000800B01E0000C010CD9CFE6FFE1CFD9FFF8
:103E3000FE0EDBCF14F3E552E7CFD9FF1200D9CF46
:103E4000E6FFE1CFD9FFE6520301146BA4EC04F0C6
:103E5000F00EE66EBFEC0FF0E552010EDF6E110EB4
:103E6000DF5C0AE27F0EE66EDFCFE6FF19EC17F0AB
:103E7000E552E552DF2AF3D7010EE66EE66AE66EFA
:103E8000E66AE66EE66AE66EE66AA8EC05F0F56EAE
:103E9000080EE15EF550C7EC18F073EC14F0D7ECA7
:103EA00007F00101020EC86F1BD8EDEC04F0CCEC5A
:103EB00022F0E552E552E7CFD9FF12000101D451BB
:103EC0001200D40EE66E010EE66E4DEC05F0E552E2
:103ED000E5520301010E426F69EC12F070EF1FF022
:103EE000B40EE66E010EE66E66EC05F0E552E552A4
:023EF0001200BE
:0E3EF2005CD8FE0EDB5004E0FE0EDB5006082E
:103F000004E2FE0EDB50000E01D0010E54D04ED85C
:103F10003ED8010EEF6E4FD049D841D81DE0FD0EBE
:103F2000DB0403E0FD0EDB5013E131D8EF6A0E0E27
:103F3000E66E3F0EE66EFD0EDBCFE6FFFE0EDBCF3C
:103F4000E6FF7BEC14F0E552E552E552E55204D071
:103F5000FE0EDB50FD0EDB502ED028D820D806E018
:103F6000FE0EDBCFE6FFF2EC14F0E55224D01ED8B3
:103F7000E65215D809E00BD8EFCFDFFFDF5002E0A3
:103F800006D8EF6ADF5001D0000EE55214D0FE0EC5
:103F9000DB50EA6AF70FE96E010EEA221200FE0E0C
:103FA000DBCFE6FFA6DFE55200091200D9CFE6FF1E
:0E3FB000E1CFD9FF1200E552E7CFD9FF120092
:023FBE00D9CF59
:103FC000E6FFE1CFD9FF020EE1261EEE00F02EEE55
:103FD00000F0F86A269CA68EA69C4EEC15F043ECE9
:103FE00020F01FEC1FF002015C6B5D6B5E6B5F6B82
:103FF0000301425101E1FCD70301145106E1010123
:10400000040EC86F41EC23F02AD0E6EC21F00EEC50
:104010001FF0000901E1FBD74FEC08F01BC05CF278
:104020001CC05DF21DC05EF21EC05FF2F6EC1EF019
:10403000000912E0640EE66EE66AE66AE66A74EC6F
:104040000AF0E552E552E552E55272EC1EF0F6EC4C
:104050001EF0000901E0FBD721EC1DF0E7D7E80EC8
:10406000E66E030EE66EE66AE66A74EC0AF0E55266
:10407000E552E552E552F3D7B0D7D9CFE1FFE5528B
:06408000E7CFD9FF12009A
:0A4086001E0EF66E080EF76E000E17
:10409000F86E03010900F5501B6F0900F5501C6F05
:1040A00003E11B6701D03DD00900F550166F0900F0
:1040B000F550176F0900F550186F09000900F55009
:1040C000E96E0900F550EA6E090009000900F55093
:1040D000196F0900F5501A6F09000900F6CF1DF39A
:1040E000F7CF1EF3F8CF1FF316C3F6FF17C3F7FF82
:1040F00018C3F8FF0301195302E11A5307E009003E
:10410000F550EE6E1907F8E21A07F9D71DC3F6FF4E
:104110001EC3F7FF1FC3F8FF03011B07000E1C5B44
:06412000BFD712001200DF
:0A412600D9CFE6FFE1CFD9FFFD0E6F
:10413000DBCF2DF02E6A2DBE2E68FB0EDBCF2FF0CD
:10414000306A2FBE30682F502D5C2B6E30502E58A9
:104150002C6EE83407E22B500F08000E2C5402E2BC
:10416000370E1AD0FB0EDBCF2DF02E6A2DBE2E6837
:10417000FD0EDBCF2FF0306A2FBE30682F502D5C44
:104180002B6E30502E582C6EE8340EE22B500F0858
:10419000000E2C5409E2C80EE66E060EE66E19EC0F
:1041A00017F0E552E5520AD07F0EE66E060EE66E77
:1041B00019EC17F0E552E552010E01D0000EE55260
:0641C000E7CFD9FF120059
:0A41C6001B502002F3CF17F0F4CFD6
:1041D00018F02102F3501826000EF420196E1B501F
:1041E0002202F3501926000EF4201A6E1B502302EF
:1041F000F3501A261C502002F3501826F4501922AE
:10420000000E1A221C502102F3501926F4501A22D3
:104210001C502202F3501A261D502002F35019267A
:10422000F4501A221D502102F3501A261E5020026B
:06423000F3501A261200F3
:0A423600D9CFE6FFDACFE6FFE1CFB3
:10424000D9FFE2CFDAFFC26AC16AC06AFC0EDB4066
:104250007F0B3C0BC26EFB0EDB50C16EFC0EDB38DD
:10426000F00B300BC112FD0EDB50800BC06EFD0E4B
:10427000DB380F0B070BC012FD0EDB50040DF350A3
:10428000380BC012FC0EDBAE03D09E9C9D8CF28CD2
:0E429000C280E552E5CFDAFFE7CFD9FF12007A
:02429E00D9CF76
:1042A000E6FFDACFE6FFE1CFD9FFE2CFDAFF3F0E3C
:1042B000C716C66AFD0EDB50C612FB0EDB50C712D6
:1042C000FC0EDB50030A09E0010A04E0020A06E1E1
:1042D000C78C04D0C78CC68801D0C688FD0EDB50C1
:1042E000050A03E0010A04E1978E9486C79E01D077
:1042F0009496949A9488C68AE552E5CFDAFFE7CF80
:04430000D9FF1200CF
:0C430400D9CFE6FFDACFE6FFE1CFD9FF0A
:10431000E2CFDAFF6C6A6B6AFD0EDBB06C88DBA261
:1043200002D06C8C6B8CDBB46C8EDBA602D06B88FD
:1043300001D06B8ADBA802D06C8401D06C94DBAC1A
:1043400002D0A38A01D0A39ADBAE02D0A38801D009
:10435000A398FC0EDB506F6E6C8A6B8EE552E5CF36
:08436000DAFFE7CFD9FF1200DC
:08436800D9CFE6FFDACFE6FF32
:10437000E1CFD9FFE2CFDAFFAC6AAB6AFD0EDBB06A
:10438000AC88DBA202D0AC8CAB8CDBB4AC8EDBA6F1
:1043900002D0AB8801D0AB8ADBA802D0AC8401D0BC
:1043A000AC94DBAC02D09D8A01D09D9ADBAE02D0EA
:1043B0009D8801D09D98FC0EDB50AF6EAC8AAB8E11
:0C43C000E552E5CFDAFFE7CFD9FF12008D
:0443CC00010EE66E8A
:1043D000FDEC0BF0E5527D0EE66EE66A010EE66E30
:1043E000E1EC0CF0E552E552E552010EE66EE66EA8
:1043F0008CEC1FF0E552E552010EE66E020EE66E01
:104400008CEC1FF0E552E552010EE66E030EE66EEF
:104410008CEC1FF0E552E552010EE66E040EE66EDE
:0A4420008CEC1FF0E552E55212008B
:06442A00D9CFE6FFE1CF4F
:10443000D9FFFE0EDB50E66E020EE66E19EC17F0A9
:10444000E552E552FE0EDB50E66E0A0EE66E19EC02
:1044500017F0E552E552FD0EDB50E66E030EE66EF8
:1044600019EC17F0E552E552FD0EDB50E66E040E36
:10447000E66E19EC17F0E552E552E552E7CFD9FFA9
:02448000120028
:0E448200FB0EE3CFF6FFFC0EE3CFF7FFFD0EBF
:10449000E3CFF8FFFE0EE3CFE9FFFF0EE3CFEAFF25
:1044A000E9CFF3FFEACFF4FF0900F5CFEFFFEE66A7
:1044B000FBD71200FE0EE3CFE9FFFF0EE3CFEAFFCA
:1044C000F36AF46AEE5203E0F34AF42AFBD71200CF
:1044D0001A6A196A186A176A200EE76ED8901B3696
:1044E0001C361D361E361736183619361A36205029
:1044F000175C215018582250195823501A5809E3B4
:104500002050175E2150185A2250195A23501A5A17
:084510001B2AE72EE4D712007C
:08451800D9CFE6FFDACFE6FF80
:10452000E1CFD9FFE2CFDAFFFD0EDB507E0BCD6E7F
:10453000FD0EDBAC02D0CD8E01D0CD9ECF6ACE6A0F
:104540009E90DBAE02D09D8001D09D90CD80E55243
:0A455000E5CFDAFFE7CFD9FF120034
:06455A00D9CFE6FFDACF25
:10456000E6FFE1CFD9FFE2CFDAFFE652E652C350D1
:10457000DF6E010EC4CFDBFFDECF2BF0DDCF2CF0E2
:104580002BC0F3FF2CC0F4FFE552E552E552E5CF16
:08459000DAFFE7CFD9FF1200AA
:08459800010EE66E14EC1FF0A9
:1045A000E552E66AE66AE66AE66AE66AE66AE66AA4
:1045B000E66AE66A010EE66EE66EE66EE66EE66EA8
:1045C000E66EE66EE66EE66E84EC0EF0F56E120EAA
:0645D000E15EF55012004F
:0A45D6001A6A196A100EE76ED890F9
:1045E0001D361E3619361A362250195C23501A58B9
:1045F00005E32250195E23501A5A1D2AE72EF0D7E0
:024600001200A6
:0E4602007F0EE66E060EE66E19EC17F0E5521E
:10461000E5527F0EE66E090EE66E19EC17F0E552D4
:04462000E55212004D
:0C462400FF0EE350356E480E01D04C0E26
:10463000E76EE72EFED7E76AE72EFED7352EF7D7CF
:044640000000120064
:0C464400FF0EE350E84E1200000000D012
:0A46500000D000D0E82EFAD71200C7
:06465A000000000000005A
:10466000000000000000000000000000000000004A
:1046700000878F979FA7AFB7BFC7CFD7DFE7EFF709
:01468000FF3A
:014681000038
:0C468200E6EC21F072EC1EF021EF1DF0C0
:02468E00C290D8
:044690009D9C1200DB
:04469400C2821200CC
:0846980000000000000000001A
:0A46A0000000000000000000000010
:0646AA000000000000000A
:0746B000000000000000FF04
:0446B70000000000FF
:0246BB000000FD
:0346BD00000000FA
:1046C00000000000000000000000000000000000EA
:1046D00000000000000000000000000000000000DA
:1046E00000000000000000000000000000000000CA
:0946F00000000000000000FF00C2
:0346F900000000BE
:0246FC000001BB
:00000001FF
